:020000040000FA
:06000000F4EF20F01200F5
:060008003AEF00F01200C7
:06002A000600A9420000DF
:10003000EF02000005000000A3420000E9020000FA
:1000400006000000A1420000FE02000002000000C5
:1000500097420000D90200000A000000954200000B
:10006000FC02000002000000764200009402000042
:040070001F0000006D
:0C007400DACFE4FFE2CFDAFFE9CFE4FFCF
:10008000EACFE4FFF6CFE4FFF7CFE4FFF5CFE4FFDC
:10009000F3CFE4FFF4CFE4FFFACFE4FF00EE00F08B
:1000A000140EE80403E3EECFE4FFFBD700EE14F0F8
:1000B0000E0EE80403E3EECFE4FFFBD7E652F29E18
:1000C000F0A23AD08D74F09266EC1DF0F3CF22F0DE
:1000D000F4CF23F0F3CFE6FFF4CFE6FF78EC1DF08A
:1000E000E552E5520CEC20F0F3CF22F0F4CF23F0F0
:1000F000F3CFE6FFF4CFE6FF58EC1DF0E552E552F2
:1001000073EC1DF0F3CF22F0F4CF23F0F3CFE6FF32
:10011000F4CFE6FF66EC1DF0F3CF24F0F4CF25F02A
:10012000F3CFE6FFF4CFE6FF72EC1AF0E552E552AA
:10013000E552E55246EC1DF0F28EE55200EE21F05C
:100140000E0EE80403E3E5CFEDFFFBD700EE13F05E
:10015000140EE80403E3E5CFEDFFFBD7E5CFFAFF8C
:10016000E5CFF4FFE5CFF3FFE5CFF5FFE5CFF7FFF0
:10017000E5CFF6FFE5CFEAFFE5CFE9FFE5CFDAFF10
:10018000110093849480948050EC1DF06BEC1DF072
:100190006AEC1AF0870ED56E1E0EE66E1B0EE66E2A
:1001A0002BEC20F0E552E552F29AF19ED08EF092BF
:1001B000F188F088F08EF28EF28C1200D9CFE6FF33
:1001C000E1CFD9FF020EE126EDEC1FF0F3CFDEFF09
:1001D000F4CFDDFFDECF18F0DDCF19F0060E1902E7
:1001E000F3CF19F01802F3CF18F0F4501926F3CF1B
:1001F00008F019C009F0B2EC0DF007C014F008C007
:1002000015F009C016F00AC017F007C006F008C0C4
:1002100007F009C008F00AC009F0020EE15C02E232
:10022000E16AE552E16EE552E7CFD9FF1200D9CF7E
:10023000E6FFE1CFD9FF020EE126DE6ADD6A72EC4D
:1002400006F020EC1EF04DEC1EF049EC1EF04AECDE
:100250001EF04BEC1EF04CEC1EF08D80F80EE66E9E
:10026000E66A90EC18F0E552E55200092BE1020134
:10027000EF5128E18D82D4EC14F090EC1BF081A2B8
:10028000FED728EC1BF0E66E69EC17F0E552F80E8D
:10029000E66EE66A010EE66EE66A66EC18F0E55276
:1002A000E552E552E552000EE66EE66AADEC18F056
:1002B000E552E5528D928D80010EE66E16EC1FF030
:1002C000E552D5D7F90EE66EE66A90EC18F0E552E5
:1002D000E552010801E08FD08D80FA0EE66EE66AE5
:1002E00090EC18F0E552E552E66EE66AE40E146E04
:1002F000330E156E166A14C0E6FFE66E16C0E6FFF2
:10030000F20EE66E000EE66E5FEC1CF0176E070E46
:10031000E15E1750FB0EE66EE66A90EC18F0E552CF
:10032000E552E66EE66AD80E146E330E156E166A46
:1003300014C0E6FFE66E16C0E6FF120EE66E010E72
:10034000E66E5FEC1CF0176E070EE15E1750FD0EB7
:10035000E66EE66A90EC18F0E552E552E66EE66A63
:10036000FC0EE66EE66A90EC18F0E552E552E66E99
:10037000E66ACC0E146E330E156E166A14C0E6FFD4
:10038000E66E16C0E6FF720EE66E010EE66E5FECDC
:100390001CF0176E090EE15E1750FE0EE66EE66A5F
:1003A00090EC18F0E552E552E66EE66AC00E146E67
:1003B000330E156E166A14C0E6FFE66E16C0E6FF31
:1003C000520EE66E010EE66E5FEC1CF0176E070E25
:1003D000E15E1750F90EE66EE66A000EE66EE66A1A
:1003E00066EC18F0E552E552E552E55242EC07F0B2
:1003F0008FEC06F08D90E66AD4EC20F0E552E66AC8
:10040000D4EC20F0E5528D9093807FEC06F08D8245
:1004100082EC06F00009F9E16FEC15F090EC1BF0AE
:1004200081A2FED728EC1BF00101936F010EE66E4E
:1004300016EC1FF0E5528D9201019351420A01E141
:10044000B4D2030A02E03CEF06F07BEC06F0010EAA
:100450000201F225F26F000EF321F36F86EC11F02A
:10046000B60EE66E330EE66EC9EC1EF0E552E552AE
:1004700088DE8D828D928D80F29EF2941EEC11F0BA
:1004800054EC1DF0F3CF14F0F4CF15F0F3CFE6FFEA
:10049000F4CFE6FFE40E166E330E176E186A16C020
:1004A000E6FFE66E18C0E6FFF20EE66E000EE66EA0
:1004B0005FEC1CF0196E070EE15E1950B6EC1AF0F5
:1004C000F3CF14F0F4CF15F0F3CFE6FFF4CFE6FF4F
:1004D000D80E166E330E176E186A16C0E6FFE66E5B
:1004E00018C0E6FF120EE66E010EE66E5FEC1CF021
:1004F000196E070EE15E1950F8EC10F0F3CF14F00E
:10050000F4CF15F0F3CFE6FFF4CFE6FFF3EC10F0F5
:10051000F3CF16F0F4CF17F0F3CFE6FFF4CFE6FFFA
:10052000CC0E186E330E196E1A6A18C0E6FFE66E0E
:100530001AC0E6FF720EE66E010EE66E5FEC1CF06E
:100540001B6E090EE15E1B5072EC1EF0F3CF14F02F
:10055000F4CF15F0F3CFE6FFF4CFE6FFA60E166E4C
:10056000330E176E186A16C0E6FFE66E18C0E6FF77
:10057000520EE66E010EE66E5FEC1CF0196E070E71
:10058000E15E195062EC20F00009FCE1010EE66E1C
:1005900016EC1FF0E55262EC20F00009FCE1E66A7F
:1005A0007BEC1EF0E55262EC20F00009FCE1F20E5B
:1005B000E66E000EE66E3CEC1FF0E552E55262EC92
:1005C00020F00009FCE1400EE66E7BEC1EF0E552E7
:1005D00062EC20F00009FCE1120EE66E010EE66E00
:1005E0003CEC1FF0E552E55262EC20F00009FCE122
:1005F000100EE66E7BEC1EF0E55262EC20F0000976
:10060000FCE1720EE66E010EE66E3CEC1FF0E55268
:10061000E55262EC20F00009FCE1500EE66E7BEC46
:100620001EF0E55262EC20F00009FCE1520EE66E8D
:10063000010EE66E3CEC1FF0E552E5528D82F90E9C
:10064000E66EE66A010EE66EE66A66EC18F0E552C2
:10065000E552E552E552FA0EE66EE66A54EC1DF0FC
:10066000F3CF14F0F4CF15F0F3CFE6FFF4CFE6FFAD
:1006700066EC18F0E552E552E552E552FB0EE66EE7
:10068000E66AB6EC1AF0F3CF14F0F4CF15F0F3CF1E
:10069000E6FFF4CFE6FF66EC18F0E552E552E552CE
:1006A000E552FC0EE66EE66AF3EC10F0F3CF14F0C0
:1006B000F4CF15F0F3CFE6FFF4CFE6FF66EC18F0C9
:1006C000E552E552E552E552FD0EE66EE66AF8ECBB
:1006D00010F0F3CF14F0F4CF15F0F3CFE6FFF4CF22
:1006E000E6FF66EC18F0E552E552E552E552FE0EE3
:1006F000E66EE66A72EC1EF0F3CF14F0F4CF15F05C
:10070000F3CFE6FFF4CFE6FF66EC18F0E552E552D2
:10071000E552E5528D9222EC19F001DB010EE66EF6
:1007200016EC1FF0E552F90EE66EE66A000EE66E74
:10073000E66A66EC18F0E552E552E552E552A8EC9F
:1007400018F0F3CF14F0F4CF15F00201F251F318C2
:1007500001E016D1F351151801E012D1A5EC15F006
:100760008D90DADA90EC1BF081A2FED728EC1BF01A
:100770000201FA6FFB6B800B01E0FB69C6DA00092E
:1007800001E0FAD090EC1BF081A2FED728EC1BF020
:100790000201FA6FFB6B800B01E0FB69410EFA1955
:1007A00001E0C4D0FB5101E0C1D0C3EC18F0F3CF9D
:1007B00014F0F4CF15F0F3CFE6FFF4CFE6FF54ECDE
:1007C0001DF0F3CF16F0F4CF17F0F3CFE6FFF4CF20
:1007D000E6FF66EC18F0E552E552E552E552C3EC4F
:1007E00018F0F3CF14F0F4CF15F0010E1426000E1C
:1007F000152214C0E6FF15C0E6FFB6EC1AF0F3CFE1
:1008000016F0F4CF17F0F3CFE6FFF4CFE6FF66EC77
:1008100018F0E552E552E552E552C3EC18F0F3CF7B
:1008200014F0F4CF15F0020E1426000E152214C099
:10083000E6FF15C0E6FFF3EC10F0F3CF16F0F4CFAF
:1008400017F0F3CFE6FFF4CFE6FF66EC18F0E552C1
:10085000E552E552E552C3EC18F0F3CF14F0F4CFB3
:1008600015F0030E1426000E152214C0E6FF15C065
:10087000E6FFF8EC10F0F3CF16F0F4CF17F0F3CF5B
:10088000E6FFF4CFE6FF66EC18F0E552E552E552DC
:10089000E552C3EC18F0F3CF14F0F4CF15F0040ECA
:1008A0001426000E152214C0E6FF15C0E6FF72ECF8
:1008B0001EF0F3CF16F0F4CF17F0F3CFE6FFF4CF2E
:1008C000E6FF66EC18F0E552E552E552E552C3EC5E
:1008D00018F0F3CF14F0F4CF15F0050E1426000E27
:1008E000152214C0E6FF15C0E6FFADEC18F0E55286
:1008F000E5520EDA010EE66E16EC1FF0E55262ECE0
:1009000020F00009FCE1400EE66E7BEC1EF0E552A3
:1009100062EC20F00009FCE1950EE66E330EE66E07
:10092000C9EC1EF0E552E5527BDA8D800201420EE1
:10093000FA1901E023D7FB5101E020D7010EE66E42
:1009400016EC1FF0E55262EC20F00009FCE1400ECD
:10095000E66E7BEC1EF0E55262EC20F00009FCE153
:10096000D7D9850EE66E330EE66EC9EC1EF0E55261
:10097000E55256DA55DA02D78D900201F26BF36B2D
:100980004FDA010EE66E16EC1FF0E55250EC1DF04A
:100990006BEC1DF06FEC1DF0000EE66EE66A2BECC2
:1009A00020F0E552E5528D9033D5A5D9010EE66EC3
:1009B00016EC1FF0E55290EC1BF081A2FED728EC5C
:1009C0001BF00201FA6FFB6B800B01E0FB69010178
:1009D000946B956B0201440EFA1901E1FB5101E1A0
:1009E0003DD10101010E926F94C1E6FF95C1E6FF72
:1009F00090EC18F0E552E552E66EE66AF6EC15F07A
:100A0000E552E552010E0101156A9425146E9551C7
:100A1000152214C0E6FF15C0E6FF90EC18F0E55271
:100A2000E552E66EE66A04EC16F0E552E552020E77
:100A30000101156A9425146E9551152214C0E6FF24
:100A400015C0E6FF90EC18F0E552E552E66EE66A56
:100A5000DAEC15F0E552E552030E0101156A942512
:100A6000146E9551152214C0E6FF15C0E6FF90ECF8
:100A700018F0E552E552E66EE66AE8EC15F0E5524C
:100A8000E552040E0101156A9425146E9551152244
:100A900014C0E6FF15C0E6FF90EC18F0E552E552F1
:100AA000E66EE66A12EC16F0E552E55294C1E6FFF6
:100AB00095C1E6FF20EC16F0E552E552F90EE66E20
:100AC000E66A010EE66EE66A66EC18F0E552E5525B
:100AD000E552E552FA0EE66EE66A94C1E6FF95C16C
:100AE000E6FF90EC18F0E552E552E66EE66A66EC39
:100AF00018F0E552E552E552E552FB0EE66EE66A65
:100B0000010E0101156A9425146E9551152214C029
:100B1000E6FF15C0E6FF90EC18F0E552E552E66EF0
:100B2000E66A66EC18F0E552E552E552E552FC0E35
:100B3000E66EE66A020E0101156A9425146E95515F
:100B4000152214C0E6FF15C0E6FF90EC18F0E55240
:100B5000E552E66EE66A66EC18F0E552E552E552BB
:100B6000E552FD0EE66EE66A030E0101156A942554
:100B7000146E9551152214C0E6FF15C0E6FF90ECE7
:100B800018F0E552E552E66EE66A66EC18F0E552BA
:100B9000E552E552E552FE0EE66EE66A040E0101EC
:100BA000156A9425146E9551152214C0E6FF15C0E0
:100BB000E6FF90EC18F0E552E552E66EE66A66EC68
:100BC00018F0E552E552E552E55290EC1BF0E66A6A
:100BD000D4EC20F0E552E66AD4EC20F0E55281A294
:100BE000FED728EC1BF00201FA6FFB6B800B01E0D3
:100BF000FB69410EFA1917E1FB5115E18D80E66A98
:100C0000D4EC20F0E5528D90050E01019425946FEF
:100C1000000E9521956FEF0ED8809455000E9555D6
:100C200002E2946B956B0201420EFA1901E0D2D6F2
:100C3000FB5101E0CFD68D82E66AD4EC20F0E5527C
:100C40008D920101050E945F000E955B945D000E80
:100C5000955902E2946B956B8D92BCD6F90EE66EB7
:100C6000E66A000EE66EE66A66EC18F0E552E552BA
:100C7000E552E55208EF02F042D862EC20F000099C
:100C8000FCE1010EE66E16EC1FF0E55262EC20F07E
:100C90000009FCE1E66A7BEC1EF0E55262EC20F014
:100CA0000009FCE17D0EE66E330EE66EC9EC1EF027
:100CB000E552E552400EE66E7BEC1EF0E55262EC2A
:100CC00020F00009FCE1730EE66E330EE66EC9EC0F
:100CD0001EF0E552E552A4D808EF02F00201010E21
:100CE000EF6F12000201EF6B1200156AEFC2F3FF03
:100CF00015C0F4FF12000201010EF06F1200020194
:100D0000F06B12000201F05112000201F1511200C9
:100D10000201010EF16F12000201F16B1200E66A8E
:100D2000D4EC20F0E552E66AD4EC20F0E552E66A15
:100D3000D4EC20F0E552E66AD4EC20F0E552E66A05
:100D4000D4EC20F0E552E66AD4EC20F0E552E66AF5
:100D5000D4EC20F0E552E66AD4EC20F0E552E66AE5
:100D6000D4EC20F0E552E66AD4EC20F0E552E66AD5
:100D7000D4EC20F0E552E66AD4EC20F0E552E66AC5
:100D8000D4EC20F0E552E66AD4EC20F0E552E66AB5
:100D9000D4EC20F0E552E66AD4EC20F0E552E66AA5
:100DA000D4EC20F0E552E66AD4EC20F0E552E66A95
:100DB000D4EC20F0E552E66AD4EC20F0E552E66A85
:100DC000D4EC20F0E552E66AD4EC20F0E552E66A75
:100DD000D4EC20F0E552E66AD4EC20F0E552E66A65
:100DE000D4EC20F0E552E66AD4EC20F0E552E66A55
:100DF000D4EC20F0E552E66AD4EC20F0E552E66A45
:100E0000D4EC20F0E552E66AD4EC20F0E552E66A34
:100E1000D4EC20F0E552E66AD4EC20F0E552120062
:100E2000E66AD4EC20F0E552E66AD4EC20F0E55214
:100E3000E66AD4EC20F0E552E66AD4EC20F0E55204
:100E4000E66AD4EC20F0E552E66AD4EC20F0E552F4
:100E5000E66AD4EC20F0E552E66AD4EC20F0E552E4
:100E60001200E66AD4EC20F0E552E66AD4EC20F0F9
:100E7000E552E66AD4EC20F0E552E66AD4EC20F0C4
:100E8000E552120062EC20F00009FCE1010EE66E72
:100E900016EC1FF0E55262EC20F00009FCE1E66A76
:100EA0007BEC1EF0E55262EC20F00009FCE1F20E52
:100EB000E66E000EE66E3CEC1FF0E552E55262EC89
:100EC00020F00009FCE1400EE66E7BEC1EF0E552DE
:100ED00062EC20F00009FCE1120EE66E010EE66EF7
:100EE0003CEC1FF0E552E55262EC20F00009FCE119
:100EF000100EE66E7BEC1EF0E55262EC20F000096D
:100F0000FCE1720EE66E010EE66E3CEC1FF0E5525F
:100F1000E55262EC20F00009FCE1500EE66E7BEC3D
:100F20001EF0E55262EC20F00009FCE1520EE66E84
:0E0F3000010EE66E3CEC1FF0E552E552120099
:020F3E00DBECEA
:100F40000CF0FB0EDBCFF3FFDB06F35000090AE0E9
:100F500029EC0DF0FA0E94EC0DF0F3E1151CF1E123
:100F6000010E01D0000E0AEF0DF0DBEC0CF03B0E91
:100F7000E12402E3E168E652E16E010EDB6A020E53
:100F8000DB6AF90EDBCFF6FFFA0EDBCFF7FFFB0EC5
:100F9000DBCFF8FF0800F550DF6EDF5002E12EEFE7
:100FA0000CF0250EDF5C02E021EF0CF0030EDB6A93
:100FB000040EDB6A050EDB6A060EDB6A070EDB6ACF
:100FC00043EC0CF02D0EDF5C0CE02B0EDF5C09E037
:100FD000200EDF5C06E0230EDF5C03E0300EDF5CFA
:100FE0001AE1DF50300A14E0130A0FE0030A0AE0A6
:100FF0000B0A05E0060AE4E1030EDB80E1D7030EED
:10100000DB82DED7030EDB84DBD7030EDB86D8D78B
:10101000030EDB88D5D72A0EDF5C1BE13FEC0CF01A
:101020008DEC0CF010E0030EDB8008680968130EED
:10103000DBCF0DF0140EDBCF0EF015EC10F0040E2C
:1010400006C0DBFF03D0130E76EC0CF043EC0CF083
:101050000BD0090EDB6AE4EC0CF003E058EC0DF069
:10106000FAD7090E76EC0CF0030EDBB0DB982E0EEF
:10107000DF5C1BE143EC0CF02A0EDF5C0BE13FEC84
:101080000CF08DEC0CF003E1130EC8EC0CF043EC0B
:101090000CF00BD0090EDB6AE4EC0CF003E058EC2A
:1010A0000DF0FAD7090EC8EC0CF0680EDF5C07E112
:1010B00043EC0CF0680EDF5C1DE1030E18D0740EDB
:1010C000DF5C17E07A0EDF5C14E0480EDF5C06E0C0
:1010D000540EDF5C03E05A0EDF5C02E1020E07D023
:1010E0006C0EDF5C03E06A0EDF5C04E1010E1BECBA
:1010F0000DF0C9DBDF506E0A01E17FD31E0A01E16A
:1011000092D1200A01E18FD13F0A01E149D11A0AA7
:1011100001E146D10D0A01E143D1200A01E140D1AC
:101120003A0A01E13DD1200A01E13AD1260A01E162
:1011300035D10D0A01E132D11A0A01E1D9D0200AD4
:101140004AE0300A1FE0460A0EE0250A01E083D398
:10115000D950F90FE96EFF0EDA20EA6E010EEE5E4D
:10116000000EEE5AEE5A29EC0DF0250EE66E95DBD8
:1011700003E1151C01E169D325EC0DF001E26BD30D
:10118000DB2A69D3080EDB6A040EDB50010806E295
:10119000040EDB04EDEC0CF0DB508BDB080EDB50B7
:1011A00009E0030EDB50010B05E172DB01E04DD3DA
:1011B000080EDB6A64DBEFCFDFFF9DEC0DF003E18F
:1011C000151C01E142D325EC0DF001E3DB2A60DBC5
:1011D00001E141D33AD3070EDB5002080FE169EC7D
:1011E0000DF0030E30EC0DF00E0EEECFDBFF0F0E08
:1011F000EECFDBFF100EEECFDBFF20D0F70EDBCF04
:1012000017F0F80EDBCF18F0020E175E000E185A1A
:10121000F70E17C0DBFFF80E18C0DBFF17C0E9FFA1
:1012200018C0EAFF20EC0DF0166A0E0E14C0DBFFAA
:101230000F0E15C0DBFF100E16C0DBFF0E0EDBCF4E
:10124000E6FF0F0EDBCFE6FF100EDBCFE6FFCCECA8
:101250001DF0E552E552E552130E07C0DBFF140EF8
:1012600008C0DBFF060EDB5005E0130E64EC0DF04A
:1012700001E26ADB88EC0DF002E2130E37DB4BEC87
:101280000DF006E0040E64EC0DF002E2050E2EDB1C
:10129000030EDBB005D0FCDA01E0D7D2080EDB6A22
:1012A000090EDB6A0E0EDBCFF6FF0F0EDBCFF7FF6A
:1012B000100EDBCFF8FF0800F550DF6EDF5014E0B2
:1012C0008EEC0DF011E29DEC0DF003E1151C01E137
:1012D000BCD2BBDB01E3DB2A090EDB2AD9500E0F9F
:1012E000E96E000ECBDBE7D7D3DA01E1B4D2ADD2A1
:1012F000C6DA110EEECFDBFF120EEDCFDBFF110EC3
:10130000DBCFE6FF120EDBCFE6FFBEEC1DF0E552B1
:10131000E552130EF3CFDBFF140EF4CFDBFF060E06
:10132000DB5004E0130ED0DB01E20EDB88EC0DF0A5
:1013300002E2130EDBDAAFDB05E0040EC5DB02E2EE
:10134000050ED4DA030EDBB005D0A2DA01E07DD2BF
:10135000080EDB6A090EDB6A110EDBCFE9FF120E05
:10136000DBCFEAFFEFCFDFFFDF5014E0D7DB12E285
:10137000E4DB03E1151C01E168D267DB01E3DB2A52
:10138000090EDB2A110EDB2ADBCFE9FF120EE8E3A0
:10139000DB2AE6D77DDA01E15ED257D2030EDB8E7F
:1013A000070EDB0410E195DB040E5ADB0A0EEECFCC
:1013B000DBFF0B0EEECFDBFF0C0EEECFDBFF0D0ED7
:1013C000EECFDBFF6CD0070EDB5003082CE1030EE1
:1013D000DBAE0DD0B2DA020E76DAEFCF14F0156A7A
:1013E000166A176A14AE39D01568166835D0F70E2C
:1013F000DBCF15F0F80EDBCF16F0020E155E000EF7
:10140000165AF70E15C0DBFFF80E16C0DBFF15C02D
:10141000E9FF16C0EAFFEFCF14F00A0E14C0DBFF9D
:101420000B0EDB6A38D0070EDB50020809E1030E11
:10143000DBAE04D059DB16AE10D00ED055DB0DD08C
:10144000030EDBAE12D079DA020E3DDAF9DA166A53
:10145000176A15AE02D016681768E2DA0C0E16C0CD
:10146000DBFF0D0E17C0DBFF1AD0F70EDBCF16F037
:10147000F80EDBCF17F0020E165E000E175AF70EAD
:1014800016C0DBFFF80E17C0DBFF16C0E9FF17C060
:10149000EAFFD6DAC5DA0C0EDB6A0D0EDB6A060E41
:1014A000DB5005E1010EF36E050EF3CFDBFF150EE9
:1014B000DB6A160EDB6AD950370F146E000EDA2085
:1014C000156E390E14C0DBFF3A0E15C0DBFF380E67
:1014D000DB6A080EDB6A0A0EAEDADF50780A12E029
:1014E000200A10E0280A0CE0200A0AE03F0A06E081
:1014F0000D0A02E0200A08E1020E05D0080E03D012
:10150000080EDF26100E97DA030EDBBE02D0DB9248
:10151000DB94DB50800B24E08ADAD890030EEB508A
:10152000000A08E6000EEE5C000EEE58000EEE58C3
:10153000000EEE5815E213DA0B680C680D680E68A1
:1015400086EC1DF00A0E02C0DBFF0B0E03C0DBFFB2
:101550000C0E04C0DBFF0D0E05C0DBFF2D0E08D006
:10156000030EDBA202D02B0E03D0DBA408D0200E8A
:10157000F36E170EF3CFDBFF150EDB2A02D0170E2A
:10158000DB6A050EDB5003E1B7D901E189D0480ED3
:10159000146E420E156E000E166E070EDBCF17F09E
:1015A000186A196A1A6A17C00BF018C00CF019C033
:1015B0000DF01AC00EF0D3D961EC1FF014500224C4
:1015C000F36E15500320F46E16500420F86EF4CF1D
:1015D000F7FFF3CFF6FF0800090EF5CFDBFF580E3B
:1015E000DF5C0FE1610EF36E090E7BD90AE3200E7A
:1015F000146E090EDBCFE7FF1450E75E090EE7CF4C
:10160000DBFF070EDBCF14F0156A166A176A0FDAD4
:1016100014C00BF015C00CF016C00DF017C00EF082
:10162000EECF06F0EECF07F0EECF08F0EFCF09F0E7
:1016300061EC1FF009C0EDFF08C0EDFF07C0EDFF32
:1016400006C0EFFF390EDBCFE9FFDB063A0EDBCF3A
:10165000EAFF01E2DB06090EDBCFEFFF150EDB2A06
:101660004BD995E1030EDBA61DD06F0EDF5C06E1C2
:10167000C1D918E3150EDB285BDA14D0780EDF5CD5
:1016800009E0580EDF5C06E0620EDF5C03E0420E0C
:10169000DF5C08E1020EF36E160EF3CFDBFF02D023
:1016A000150EDB6A030EDB50100B0EE0040EDBCFD1
:1016B00014F0050EDB50D880145406E2060EDB5001
:1016C00003E1040EDB5034DA95D90AE2050EDBCFD4
:1016D000E7FF150EDB50E75E050EE7CFDBFF02D01C
:1016E000050EDB6A040EDBCF14F0160E45D9D88048
:1016F000145414E2160EDBCFE6FF150EDBCFE6FF27
:10170000040EDBCFE6FF050EDB50E552E75CE55249
:10171000D880E754E552D880E7545FD9030EDB50F8
:10172000010B0BE1080EDB5008E0B2D801E08DD0D0
:10173000080EDB50BED8080EDB6A170EDB5007E040
:1017400088D9170EF1D903E1151C01E17ED0160EE0
:10175000DB5016E07ED9300EE66E9FD802E1151CF4
:1017600074E077D9DFCFE6FF04EC1DF0E552E552D7
:10177000E552F4CF15F00001F31C02E1151C65E001
:10178000050EDBCF14F0160EDB50D880145409E29E
:10179000050EDBCFE7FF160EDB50E75E050EE7CF49
:1017A000DBFF300EE66E050ECBD94FE1390EDB2A9A
:1017B000DBCFE9FF3A0E01E3DB2ADBCFEAFF090EBC
:1017C000EFCFDBFFDB500EE044D9090EADD902E1CB
:1017D000151C3BE0390EDB2ADBCFE9FF3A0EEDE3C7
:1017E000DB2AEBD755D831E1160EDBCFE6FF080E2A
:1017F000C3D8E552E7245DD82ED0070EDB50030A8C
:101800001CE0010A14E0030A07E07BD9DBCFEEFFFE
:10181000020EDBCFEDFF1FD0F5D8196A17AE02D04C
:10182000186819682CD8BCD819C0EEFF14D0EAD8B3
:1018300017BE186824D8B4D80ED063D9DBCFEFFF19
:101840000AD07BD905E1151C03E1F368F46810D0D8
:10185000FCD801E3DB2A79D9CAEF07F0010EDBCF10
:1018600014F0020EDBCF15F014C0F3FF15C0F4FF27
:101870003B0EE15C02E2E16AE552E16ECBD029D990
:10188000020E30EF0DF061D90800F550DF6E120046
:10189000200EE66E080EA0EF0DF004EC1DF0E552F0
:1018A000E552E552F3CF14F0F4CF15F00001F31C2C
:1018B0001200146E156AD950010F4DD91450EE263E
:1018C0001550ED221200185E000E195AF70E18C0BE
:1018D000DBFFF80E19C0DBFF18C0E9FF19C0EAFFF3
:1018E0001200DBCFF4FFF350F45C1200DB50E76E24
:1018F000040EE7CFDBFF12000A0EDBCF14F00B0E55
:10190000DBCF15F00C0EDBCF16F00D0EDBCF17F092
:1019100014501510161017101200130EEECFDBFF27
:10192000140EEDCFDBFF130EDBCF14F0140EDBCF64
:1019300015F00001800E15141200F70EDBCF18F021
:10194000F80EDBCF19F01200050EDB50E66ED95011
:10195000130F01D9E552E750EE6EED6A12000A0E40
:10196000DBCF06F00B0EDBCF07F00C0EDBCF08F061
:101970000D0EDBCF09F01200DBCFE6FF150EDBCF3B
:10198000E6FF050EDB50E552E724E552E72412009E
:10199000DB50CED8010EF36E060EF3CFDBFF120044
:1019A000EE50EFCFEAFFE96E16C0EEFF17C0EEFF74
:1019B00018C0EEFF1200D9CFE6FFDACFE6FFE1CF85
:1019C000D9FFE2CFDAFF1200DFCFE6FFE66AC2EC12
:1019D00020F0E552E552F3501200E76E080EE7CF13
:1019E000DBFF1200EECF14F0EECF15F0EFCF16F0C4
:1019F000176A1200050EDBCF14F0150EDB50D880ED
:101A000014541200010EDBCF16F0020EDBCF17F0DC
:101A1000186A1200E552E5CFDAFFE7CFD9FF1200CE
:101A20000A0E14C0DBFF0B0E15C0DBFF1200D950ED
:101A30000A0FABEF0DF0F36E070EF3CFDBFF1200D2
:101A4000EECF14F0EFCF15F01200010EDB2A020EDC
:101A50001200FC0EDBCFE6FFFD0EDBCFE6FF12002F
:101A6000145E000E155AF70E14C0DBFFF80E15C0F9
:101A7000DBFF14C0E9FF15C0EAFF1200DA20EA6EAE
:101A8000EF2AEECFF6FF000EEF22EECFF7FFEF22A8
:101A9000EECFF8FF1200040EDBCFE6FF130EDB5093
:101AA000E552E75C9ADFDB5004DF060EDB501200E4
:101AB000090EDB500A0DF350DF24D00FE76E090E3C
:101AC000E7CFDBFF43EF0CF0DB50F36E050E71EF59
:101AD0000CF0F70EDBCF14F0F80EDBCF15F0120090
:101AE000DFCFE6FF4DEF0CF028DF030EECDEF2EF68
:101AF0000CF09FEC07F0E552E552E552E552000983
:101B00001200BDDEEE50EFCFEAFFE96E010E1200CB
:101B1000130EDB50F36E040E71EF0CF0040EDB506D
:101B2000F36E090E71EF0CF0DBCFE6FF4DEF0CF01A
:101B3000E76E050EE7CFDBFF12008BDF70EF0DF0D5
:101B4000DBCFE6FF86DF79EF0DF0D950F90FE96EB4
:101B5000FF0E3EEF0DF0E96E000EDA20EA6E120085
:101B6000019E08D0019E09AE05D0086C091EE86AE6
:101B70000922018E09C003F008C002F0136A126A3C
:101B80008E0E046E056AABEF0FF00F7E016AE7EC74
:101B90000FF0FFEC0FF001B68FEF0FF001A20AD0AB
:101BA00001AA03D001BE8FEF0FF001A49BEF0FF04D
:101BB00098EF0FF001AA05D001AC9BEF0FF098EF62
:101BC0000FF001A00AD001A808D001BE04D001A4E2
:101BD00002D0A4EF0FF0A8EF0FF0126A056A0F50C1
:101BE0000A5C116E10E307C013F008C002F009C0D0
:101BF00003F00AC010F00CC007F00DC008F00EC0D2
:101C000009F0013A09D00CC013F00DC002F00EC06B
:101C100003F00FC010F0116C019E01BC018E10C0CA
:101C200004F001B0D7EF0FF01A0E1160D7EF0FF0EC
:101C3000046A0A6A01A408D0076C081E091E0A1E5D
:101C4000E86A082209220A2201AC08D0136C021E9D
:101C5000031E041EE86A022203220422066A1152AD
:101C600007E00A340932083207320632112EF9D75A
:101C70000750132608500222095003220A5004225A
:101C800006C012F0019E04AE0BD0126C131E021E91
:101C9000031E041EE86A1322022203220422018E7C
:101CA00004A006D0D8800332023213321232102A36
:101CB00010C004F0ABEF0FF0016AE7EC0FF0FFEC9F
:101CC0000FF001B68FEF0FF001A205D001BA8FEF30
:101CD0000FF096EF0FF001BAA2EF0FF001A005D0C0
:101CE00001B88FEF0FF0A2EF0FF001B896EF0FF0F1
:101CF000056A7F0E0A24046EE86A05220F50045E0E
:101D0000E86A055A1A0E106E0A6A126A136A026AA3
:101D1000036A0C50075E0D50085A0E50095A000E07
:101D20000A5A09E70C5007260D5008220E500922C6
:101D3000000E0A2201D0128AD890073608360936DA
:101D40000A36D8901236133602360336102EE1D7F3
:101D5000095008100710D8A4128AABEF0FF0016ADF
:101D6000E7EC0FF0FFEC0FF001B68FEF0FF001A2E0
:101D700005D001B88FEF0FF096EF0FF001AA05D054
:101D800001B08FEF0FF096EF0FF001B002D001A875
:101D900002D0A2EF0FF0056A0F500A24046EE86A21
:101DA00005227E0E045EE86A055A126A136A026A08
:101DB000036A0E500902F4CF03F0F3CF02F00D5086
:101DC0000902F3501326F4500222000E03220E5093
:101DD0000802F3501326F4500222000E03220C5086
:101DE0000902F3501226F4501322000E022203229D
:101DF0000D500802F3501226F4501322000E022256
:101E000003220E500702F3501226F4501322000E44
:101E1000022203220C500802F4501226000E132254
:101E2000022203220D500702F4501226000E132244
:101E300002220322ABEF0FF0006A0EAE25EF0FF087
:101E40000D6C0E1EE86A0E22001E09AE2DEF0FF07B
:101E5000086C091EE86A0922001EACEC20F009BEDD
:101E60003DEF0FF000AE000C086C091EE86A092275
:101E7000046C051EE86A0522000C00BE34EF0FF06A
:101E80000188FF0C08C012F008500D02F4CF07F0D3
:101E9000F3CF06F009500E02F4CF09F0F3CF08F0AB
:101EA0000D02F3500726F4500822E86A0922125066
:101EB0000E02F3500726F4500822E86A0922000CAB
:101EC000016AE7EC0FF001B66AEF0FF001A20ED045
:101ED00001B405D07F0E096EFF0E086E1FD0800E74
:101EE000096E086A1BD0096A086A18D001B0FBD7CE
:101EF0008F0E0A60EDD77E0E0A64F5D78E0E0A5C4F
:101F000005E0D890093208320A2AF8D701A406D091
:101F1000086C091EE86A092209AEE5D712007F0E97
:101F20000A6EFF0E096E086E076E12007F0E01BE6C
:101F3000FF0E0A6E02D07F0E0A6E800E096E086ACE
:101F4000076AF3D701AE04D0800E0A6E096AF7D78C
:101F50000A6A096AF4D70350021013101210F8E04D
:101F600005BEF0D703BE0CD004500510EBE0D890AE
:101F700012361336023603360406D8A00506F2D709
:101F80000550D4E10428D2E012AE11D07F0E121415
:101F900002E113A00CD0132AE86A0222032207E30D
:101FA000D880033202321332042A0428BFE00450DE
:101FB000C9E013C007F002C008F00334096E043012
:101FC0000A6E09320A9E01BE0A8E95EF0FF009369D
:101FD0000A3602E30184017E06E101800A6A096A89
:101FE000086A076A12000A2803E0D8800932120042
:101FF000D890093202E101821200018612000E36E9
:102000000F3602E3018C017E06E101880F6A0E6A39
:102010000D6A0C6A12000F2803E0D8800E321200FD
:10202000D8900E32EAE1018A120009C013F008C00C
:1020300012F008500D02F4CF07F0F3CF06F009506C
:102040000E02F4CF09F0F3CF08F00D02F35007268B
:10205000F4500822E86A092212500E02F3500726B3
:10206000F4500822E86A09220EAE3BEF10F012503D
:10207000085E1350095A13AE000C0D50085E0E5046
:04208000095A000CED
:0C208400D9CFE6FFE1CFD9FF020EE12624
:10209000DE6ADD6A938A8A9A939A300EE66E10ECB5
:1020A00021F0E552938A180EE66E10EC21F0E5520D
:1020B0008150200B200A01E0010E146E156A14BE37
:1020C000156814C0DEFF15C0DDFFDF50146E020E70
:1020D000E15C02E2E16AE552E16E1450E552E7CFBD
:1020E000D9FF1200D9CFE6FFE1CFD9FFE652DF6A70
:1020F000DFCF14F0080EE76E1418E8AE02D0E73414
:1021000002D0E750145C22E28A9A939A010EE66E9E
:1021100010EC21F0E552FE0EDB50010BE8B0938A83
:10212000E8A0939A050EE66E10EC21F0E552938A32
:10213000020EE66E10EC21F0E552FE0EDB407F0B46
:10214000E76EFE0EE7CFDBFFDF2AD2D7E552E5527E
:10215000E7CFD9FF1200D9CFE6FFE1CFD9FF020EBA
:10216000E126DF6A010EDB6A010EDBCF14F0080EF8
:10217000E76E1418E8AE02D0E73402D0E750145CE2
:1021800024E28A9A939A00000000938A00000000DB
:102190000000000000000000000000008150200B43
:1021A00001E0010EF36E010EDB5004E0D890F3362F
:1021B000E806FCE1F350DF10DF6E050EE66E10EC72
:1021C00021F0E552010EDB2ACFD7DF5000D0146E8C
:1021D000020EE15C02E2E16AE552E16E1450E55262
:1021E000E7CFD9FF12009AC2F3FF9BC2F4FF12009F
:1021F000D9CFE6FFE1CFD9FF020EE1269FC208F05A
:10220000A0C209F0B1C20DF0B2C20EF042EC0FF064
:1022100006C0DEFF07C0DDFFDECF14F0DDCF15F016
:1022200014C0F3FF15C0F4FF020EE15C02E2E16AA4
:10223000E552E16EE552E7CFD9FF120023DFCC0E65
:10224000E66E50DFE552440EE66E4CDFE552010EBD
:102250000201AD6FAE6BAE3504E2AD510308000E66
:10226000AE550DE3660EE66E95EC20F0E552010EDC
:102270000201AD25AD6F000EAE21AE6FECD702DFCF
:10228000CC0EE66E2FDFE552BE0EE66E2BDFE5527A
:1022900062DF0201956F5FDF0201946FE838F00B97
:1022A000966F976B95390F0B986F996B96519811A4
:1022B0009A6F975199119B6F95A104D0100EB16F31
:1022C000270EB26F95A304D0E80EB16F030EB26F64
:1022D00095A503D0640EB16FB26B95A703D00A0E1B
:1022E000B16FB26B9A519F25146E9B51A021156E50
:1022F00014C008F0096EB0EC0DF007C0A1F208C0E0
:10230000A2F209C0A3F20AC0A4F21200D9CFE6FFDC
:10231000E1CFD9FF090EE126010EDB6A040EDB6A6C
:10232000050EDB6AB00EF36E060EF3CFDBFF070E71
:10233000DB6A080EDB6AA6DECC0EE66ED3DEE55263
:10234000440EE66ECFDEE552010EF36E070EF3CFBC
:10235000DBFF080EDB6A070EDBCF14F0080EDBCFC5
:1023600015F0153404E214500308000E155418E358
:10237000660EE66E95EC20F0E552010EE76E070E54
:10238000DBCF14F0080EDBCF15F0E7501426000E5B
:102390001522070E14C0DBFF080E15C0DBFFDBD7CC
:1023A00071DECC0EE66E9EDEE552BE0EE66E9ADE65
:1023B000E552D1DEE76E010EE7CFDBFFCCDEDF6E4C
:1023C000DF38F00BE66ED950020FE96EDACFEAFF84
:1023D000E552E750EE6EED6A010EDB380F0BE66E4C
:1023E000D950040FE96EDACFEAFFE552E750EE6EFE
:1023F000ED6A040EDBCF14F0050EDBCF15F0020EF4
:10240000DB500001141002019A6F030EDB50000133
:10241000151002019B6F010E9A519F25146E9B515E
:10242000A021156E14C008F0096EB0EC0DF007C0C5
:10243000A1F208C0A2F209C0A3F20AC0A4F2060EDB
:10244000DBCFE6FFE66A07C0E6FF08C0E6FF09C08B
:10245000E6FF0AC0E6FFC50E146E340E156E166A4E
:1024600014C0E6FFE66E16C0E6FF360EE66E020EFC
:10247000E66E5FEC1CF0176E0B0EE15E1750090E56
:10248000E15C02E2E16AE552E16EE552E7CFD9FF95
:102490001200956A280EE66E9FEC1BF0E55262EC86
:1024A00020F00009FCE1320E0201B0AF02D0D8905A
:1024B00003D0AF5D000EB05924E28D70BFDEA1C223
:1024C0000CF0A2C20DF0A3C20EF0A4C20FF0A5C280
:1024D00007F0A6C208F0A7C209F0A8C20AF0C6EC2D
:1024E0000DF007C0A5F208C0A6F209C0A7F20AC005
:1024F000A8F2010E0201AF25AF6F000EB021B06F40
:10250000D2D7AFC208F0B0C209F0B2EC0DF007C0EC
:1025100014F008C015F009C016F00AC017F007C083
:102520000CF008C00DF009C00EF00AC00FF0A5C2F3
:1025300007F0A6C208F0A7C209F0A8C20AF05CEC36
:102540000EF007C0A9F208C0AAF209C0ABF20AC097
:04255000ACF21200D7
:0C255400D9CFE6FFE1CFD9FF550EE66EAF
:10256000E66EAA0EE66EE66A44D8E552E552E552FA
:10257000E552010EE66E10EC21F0E552AA0EE66E71
:102580002A0EE66E550EE66EE66A33D8E552E5523F
:10259000E552E552010EE66E10EC21F0E552550EC3
:1025A000E66EE66EA00EE66EE66A23D8E552E552C8
:1025B000E552E552010EE66E10EC21F0E552FB0EFD
:1025C000DBCFE6FFFC0EDBCFE6FFFD0EDBCFE6FF49
:1025D000FE0EDBCFE6FF0DD8E552E552E552E5529F
:1025E000010EE66E10EC21F0E552E552E7CFD9FF7F
:1025F0001200D9CFE6FFE1CFD9FF020EE126FD0E92
:10260000DBCFDEFFDBCFDDFFC6D9D950FD0FE96E92
:10261000FF0EDA20EA6EEE50ED1002E1000E01D05E
:10262000010E146E156A14BE156814C0DEFF15C0C5
:10263000DDFFDF50E8B08986E8A08996D950FD0F0C
:10264000E96EFF0EDA20EA6EEE50ED1002E1000EA8
:1026500001D0010E146E156A14BE156814C0DEFF99
:1026600015C0DDFFDECF14F0DDCF15F0D8901532A8
:10267000143214C0DEFF15C0DDFFDF50E8B0898CD6
:10268000E8A0899CD950FD0FE96EFF0EDA20EA6EB2
:10269000EE50ED1002E1000E01D0010E146E156A2D
:1026A00014BE156814C0DEFF15C0DDFFDECF14F0C8
:1026B000DDCF15F0D89015321432D890153214327F
:1026C00014C0DEFF15C0DDFFDF50E8B08B80E8A04E
:1026D0008B90D950FD0FE96EFF0EDA20EA6EEE50B6
:1026E000ED1002E1000E01D0010E146E156A14BE49
:1026F000156814C0DEFF15C0DDFFDECF14F0DDCF9E
:1027000015F0030ED89015321432E804FBE114C022
:10271000DEFF15C0DDFFDF50E8B08B84E8A08B94AE
:10272000D950FD0FE96EFF0EDA20EA6EEE50ED1083
:1027300002E1000E01D0010E146E156A14BE156878
:1027400014C0DEFF15C0DDFFDECF14F0DDCF15F0C5
:10275000040ED89015321432E804FBE114C0DEFFF9
:1027600015C0DDFFDF50E8B08988E8A08998D9500E
:10277000FD0FE96EFF0EDA20EA6EEE50ED1002E179
:10278000000E01D0010E146E156A14BE156814C037
:10279000DEFF15C0DDFFDECF14F0DDCF15F0050E36
:1027A000D89015321432E804FBE114C0DEFF15C0E6
:1027B000DDFFDF50E8B08A80E8A08A90D950FD0F95
:1027C000E96EFF0EDA20EA6EEE50ED1002E1000E27
:1027D00001D0010E146E156A14BE156814C0DEFF18
:1027E00015C0DDFFDECF14F0DDCF15F0060ED8905A
:1027F00015321432E804FBE114C0DEFF15C0DDFF22
:10280000DF50E8B08A86E8A08A96D950FD0FE96EBD
:10281000FF0EDA20EA6EEE50ED1002E1000E01D05C
:10282000010E146E156A14BE156814C0DEFF15C0C3
:10283000DDFFDECF14F0DDCF15F0070ED890153296
:102840001432E804FBE114C0DEFF15C0DDFFDF50E9
:10285000E8B08A88E8A08A98020EE15C02E2E16AA8
:10286000E552E16EE552E7CFD9FF1200D9CFE6FF7E
:10287000E1CFD9FF020EE126DE6ADD6A83D88B8ABA
:102880008B8C8B8E00008050080B01E0010E020142
:10289000B56FB66B8050400B01E0010E0201B76FBF
:1028A000B86B8250010B0201B96FBA6B8250040BF6
:1028B00001E0010E0201BB6FBC6B8050100B01E008
:1028C000010E0201BD6FBE6B8150010B0201BF6F93
:1028D000C06B8150080B01E0010E0201C16FC26B99
:1028E0008150100B01E0010E0201C36FC46B8B9C81
:1028F0008B9EDE6ADD6ADECF14F0DDCF15F0D89056
:10290000155004E6070E145C000E15582EE2DECFBB
:10291000E9FFDDCFEAFFD890E936EA36B50EE926C1
:10292000020EEA22EECF16F0EFCF17F0DF5016C0FE
:1029300014F017C015F005E0D89014361536E804E9
:10294000FBE1DECFE9FFDDCFEAFFD890E936EA36DA
:10295000B50EE926020EEA2214C0EEFF15C0EDFF07
:10296000DF2A010E01E3DB2AC6D7F36AF46A00D03E
:10297000020EE15C02E2E16AE552E16EE552E7CF68
:10298000D9FF12009286928C9480948292889380D0
:102990009386938812009296929C94909492929827
:0829A0009390939693981200A6
:0829A800956A280EE66E9FEC13
:1029B0001BF0E55262EC20F00009FCE1010EE66E2E
:1029C00016EC1FF0E55262EC20F00009FCE10E0E5F
:1029D000E66E16EC1FF0E55262EC20F00009FCE117
:1029E000010EE66E16EC1FF0E552400EE66E7BEC33
:1029F0001EF0E5529C0EE66E340EE66EC9EC1EF03B
:102A0000E552E552E66AD4EC20F0E552E66AD4ECF1
:102A100020F0E552E66AD4EC20F0E552E66AD4EC08
:102A200020F0E552E66AD4EC20F0E552E66AD4ECF8
:102A300020F0E552E66AD4EC20F0E552E66AD4ECE8
:102A400020F0E552E66AD4EC20F0E552E66AD4ECD8
:102A500020F0E552E66AD4EC20F0E552E66AD4ECC8
:102A600020F0E552E66AD4EC20F0E552010EE66E65
:102A700016EC1FF0E552E66A7BEC1EF0E552880E7C
:102A8000E66E340EE66EC9EC1EF0E552E552400EDD
:102A9000E66E7BEC1EF0E552760EE66E340EE66EC8
:102AA000C9EC1EF0E552E552100EE66E7BEC1EF00E
:102AB000E552640EE66E340EE66EC9EC1EF0E55289
:102AC000E552500EE66E7BEC1EF0E552510EE66EBE
:102AD000340EE66EC9EC1EF0E552E5521200956A1E
:102AE000280EE66E9FEC1BF0E55262EC20F0000928
:102AF000FCE1010EE66E16EC1FF0E55262EC20F0F0
:102B00000009FCE10E0EE66E16EC1FF0E55262ECD9
:102B100020F00009FCE1E66A7BEC1EF0E552450E70
:102B2000E66E340EE66EC9EC1EF0E552E552400E3C
:102B3000E66E7BEC1EF0E552350EE66E340EE66E68
:102B4000C9EC1EF0E552E5521200956A280EE66EB9
:102B50009FEC1BF0E55262EC20F00009FCE1010E55
:102B6000E66E16EC1FF0E552E66A7BEC1EF0E552CD
:102B700062EC20F00009FCE1290EE66E340EE66EF0
:102B8000C9EC1EF0E552E55262EC20F00009FCE1D0
:102B9000400EE66E7BEC1EF0E55262EC20F0000980
:102BA000FCE1180EE66E340EE66EC9EC1EF0E5523E
:102BB000E5521200D9CFE6FFE1CFD9FFFD0EDBCF02
:102BC000D9F2FE0EDBCFDAF2E552E7CFD9FF1200E1
:102BD000D9CFE6FFE1CFD9FFFD0EDBCFDBF2FE0E52
:102BE000DBCFDCF2E552E7CFD9FF1200D9CFE6FF09
:102BF000E1CFD9FFFD0EDBCFDDF2FE0EDBCFDEF243
:102C0000E552E7CFD9FF1200D9CFE6FFE1CFD9FFD8
:102C1000FD0EDBCFDFF2FE0EDBCFE0F2E552E7CFB9
:102C2000D9FF1200D9CFE6FFE1CFD9FFFD0EDBCFF0
:102C3000E1F2FE0EDBCFE2F2E552E7CFD9FF120060
:102C4000D9CFE6FFE1CFD9FF010EE66E16EC1FF0FB
:102C5000E55262EC20F00009FCE1DDC2E6FFDEC2D5
:102C6000E6FF100E146E340E156E166A14C0E6FFE1
:102C7000E66E16C0E6FFB60EE66E010EE66E5FEC7F
:102C80001CF0176E070EE15E1750DFC2E6FFE0C2D0
:102C9000E6FF040E146E340E156E166A14C0E6FFBD
:102CA000E66E16C0E6FFD60EE66E010EE66E5FEC2F
:102CB0001CF0176E070EE15E1750DBC2E6FFDCC2A8
:102CC000E6FFD9C2E6FFDAC2E6FFF80E146E330E55
:102CD000156E166A14C0E6FFE66E16C0E6FFF60E25
:102CE000E66E010EE66E5FEC1CF0176E090EE15EFB
:102CF0001750E1C2E6FFE2C2E6FFEC0E146E330E9F
:102D0000156E166A14C0E6FFE66E16C0E6FF160ED4
:102D1000E66E020EE66E5FEC1CF0176E070EE15ECB
:102D2000175062EC20F00009FCE1E66A7BEC1EF033
:102D3000E55262EC20F00009FCE1B60EE66E010EF1
:102D4000E66E3CEC1FF0E552E55262EC20F0000923
:102D5000FCE1400EE66E7BEC1EF0E55262EC20F0EA
:102D60000009FCE1D60EE66E010EE66E3CEC1FF0AB
:102D7000E552E55262EC20F00009FCE1100EE66E2F
:102D80007BEC1EF0E55262EC20F00009FCE1F60E4F
:102D9000E66E010EE66E3CEC1FF0E552E55262EC89
:102DA00020F00009FCE1500EE66E7BEC1EF0E552CF
:102DB00062EC20F00009FCE1160EE66E020EE66EF3
:102DC0003CEC1FF0E552E55262EC20F00009FCE11A
:082DD000E552E7CFD9FF120024
:082DD800D9CFE6FFE1CFD9FFDE
:102DE000FD0EDBCFCFF2FE0EDBCFD0F2FD0EDBCF40
:102DF000D1F2FE0EDBCFD2F2010E0201D127000E7E
:102E0000D223FD0EDBCFD3F2FE0EDBCFD4F2020EC7
:102E1000D327000ED423FD0EDBCFD5F2FE0EDBCF81
:102E2000D6F2030ED527000ED623FD0EDBCFD7F248
:102E3000FE0EDBCFD8F2040ED727000ED823CFC268
:102E4000E6FFD0C2E6FF54EC1DF0F3CF14F0F4CF50
:102E500015F0F3CFE6FFF4CFE6FF38D9E552E5529F
:102E6000E552E552D1C2E6FFD2C2E6FF6C0EE66E35
:102E7000350EE66E2BD9E552E552E552E552D3C246
:102E8000E6FFD4C2E6FFF3EC10F0F3CF14F0F4CF7A
:102E900015F0F3CFE6FFF4CFE6FF18D9E552E5527F
:102EA000E552E552D5C2E6FFD6C2E6FFF8EC10F0D7
:102EB000F3CF14F0F4CF15F0F3CFE6FFF4CFE6FF35
:102EC00005D9E552E552E552E552E552E7CFD9FF83
:102ED0001200D9CFE6FFE1CFD9FFFE0EDB50440A46
:102EE0000CE0070A08E0010A04E0030A0DE1010E04
:102EF00005D0020E03D0050E01D00A0E0201FE6FAE
:102F0000FF6B6EEC06F066D0010EE66E16EC1FF05D
:102F1000E55272EC06F0400EE66E7BEC1EF0E552D8
:102F2000B60EE66E340EE66EC9EC1EF0E552E552C2
:102F3000E66AD4EC20F0E552E66AD4EC20F0E552E3
:102F4000E66AD4EC20F0E552E66AD4EC20F0E552D3
:102F5000E66AD4EC20F0E552E66AD4EC20F0E552C3
:102F6000E66AD4EC20F0E552E66AD4EC20F0E552B3
:102F7000010EE66E16EC1FF0E552AC0EE66E340E56
:102F8000E66EC9EC1EF0E552E552E66AD4EC20F09C
:102F9000E552E66AD4EC20F0E552E66AD4EC20F083
:102FA000E552E66AD4EC20F0E552E66AD4EC20F073
:102FB000E552E66AD4EC20F0E552E66AD4EC20F063
:102FC000E552E66AD4EC20F0E552010EE66E16EC0E
:102FD0001FF0E552E552E7CFD9FF1200D9CFE6FF47
:102FE000E1CFD9FFFD0EDBCFCFF2FE0EDBCFD0F26B
:102FF000FD0EDBCFD1F2FE0EDBCFD2F2010E0201CD
:10300000D127000ED223FD0EDBCFD3F2FE0EDBCF95
:10301000D4F2020ED327000ED423FD0EDBCFD5F25F
:10302000FE0EDBCFD6F2030ED527000ED623FD0E03
:10303000DBCFD7F2FE0EDBCFD8F2040ED727000E7F
:10304000D823CFC2E6FFD0C2E6FF6AD8E552E552E8
:10305000E66EE66AF6EC15F0E552E552D1C2E6FFFF
:10306000D2C2E6FF5DD8E552E552E66EE66A04ECB0
:1030700016F0E552E552D3C2E6FFD4C2E6FF50D8BF
:10308000E552E552E66EE66ADAEC15F0E552E552F5
:10309000D5C2E6FFD6C2E6FF43D8E552E552E66E5A
:1030A000E66AE8EC15F0E552E552D7C2E6FFD8C271
:1030B000E6FF36D8E552E552E66EE66A12EC16F007
:1030C000E552E552E552E7CFD9FF1200D9CFE6FF2E
:1030D000E1CFD9FFE652F250800B01E0010EDF6E26
:1030E000A69EA69CF29EA6B2FED7FB0EDB50A96E52
:1030F000FD0EDB50A86EA684550EA76EAA0EA76E15
:10310000A682A6B2FED7A694A198DF50E8B0F28EB0
:10311000E8A0F29EA68EE552E552E7CFD9FF120055
:10312000D9CFE6FFE1CFD9FFA650010BFDE1A650B4
:10313000020BFAE1FD0EDB50A96EA69EA69CA680AE
:10314000A6B0FED7A68EA850E552E7CFD9FF120051
:10315000FEC2F3FFFFC2F4FF1200D9CFE6FFE1CFBA
:10316000D9FFFF0EE66EE66AFD0EDBCFE6FFFE0E30
:10317000DBCFE6FFABDFE552E552E552E552E55223
:10318000E7CFD9FF1200FF0EE66EE66AC9DFE5520F
:0C319000E552156AF36E15C0F4FF120042
:04319C0094948D80FA
:1031A000060EE66E47EC20F0E552320EE66EE66A59
:1031B000F1EC1DF0E552E5521200F0DF0201F86B70
:1031C000F96B030EF9AF02D0D89003D0F85D000E72
:1031D000F95936E20201FC6BFD6B030EFDAF02D024
:1031E000D89003D0FC5D000EFD5915E28D70190ECC
:1031F000E66E7DEC20F0E552E66AD4EC20F0E55274
:1032000035EC21F0E66AD4EC20F0E5520201FC2B0B
:10321000000EFD23E2D7E66AD4EC20F0E552E66A20
:10322000D4EC20F0E552E66AD4EC20F0E552E66AF0
:10323000D4EC20F0E5520201F82B000EF923C1D79F
:1032400035EF21F072EC1EF0F3CF20F0F4CF21F037
:10325000D890F45004E6460E205C000E215802E39C
:10326000000E01D0010E1F6EE66E72EC1EF0E552EC
:10327000E7CF1FF0F3CF1DF0F4CF1EF0F43404E2DB
:103280001D508C08000E1E5402E3000E01D0010EEA
:103290001C6EE66E1FC0E6FFB6EC1AF0E552E7CFF3
:1032A0001FF0E552E7CF1CF0F3CF1AF0F4CF1BF07C
:1032B000320ED880F354000EF45402E3000E01D015
:1032C000010E196EE66E1CC0E6FF1FC0E6FF54EC4F
:1032D0001DF0E552E7CF1FF0E552E7CF1CF0E552B5
:1032E000E7CF19F0F3CF17F0F4CF18F0D890F450DF
:1032F00004E61E0E175C000E185802E3000E01D003
:10330000010E166EE66E19C0E6FF1CC0E6FF1FC078
:10331000E6FF54EC1DF0E552E7CF1FF0E552E7CF92
:103320001CF0E552E7CF19F0E552E7CF16F0F3CFE6
:1033300014F0F4CF15F0F43404E214507808000EC1
:10334000155402E3000E01D0010E161019101C10C6
:083350001F1001E032DF120042
:083358004D4541535552454D0E
:10336000454E54202020202020202041424F5254FE
:1033700045440054525920414741494E00494E5658
:10338000414C49440053544F524147452041424F1C
:10339000525445440053544F5245205355434345DE
:1033A000535346554C00474C55434F53453A2569B6
:1033B0006D672F646C004D4541535552494E47008F
:1033C000474C55434F53453A2025690054454D50CD
:1033D0003A2025692E256900704E4E35303A202559
:1033E0006925250042504D3A20257500474C55432C
:1033F0004F53453A2025690054454D503A202569E0
:103400002E256900704E4E35303A2025692525005D
:1034100042504D3A20257500423A2041424F5254C5
:103420002053544F5241474500413A20434F4E5498
:10343000494E55450042203A20564945572053549D
:103440004F5245440041203A204D45415355524585
:1034500000443A203130204D4541535552454D45A9
:103460004E545300433A2035204D45415355524563
:103470004D454E545300423A2032204D454153555C
:1034800052454D454E545300413A20414C4C204D3D
:103490004541535552454D454E54530043484F4FB7
:1034A000534520494E54455256414C0054525920E0
:1034B000414741494E00494E56414C4944204F50E6
:1034C00054494F4E0054454D503A202B252E34661A
:0434D000256343002D
:0C34D4000201E56BE66BE76BE86BE36B55
:1034E000E46B1200D9CFE6FFE1CFD9FFFD0EDBCFB1
:1034F00016F0FE0EDBCF17F0FB0EDB50165C146EE1
:10350000FC0EDB501758156EE83409E21450900891
:10351000010E155404E20201E32B000EE423E552F0
:10352000E7CFD9FF12004BEC1DF0F3CF14F0F4CF2E
:1035300015F0E3C208F0E4C209F0F3CF0DF0F4CFC8
:103540000EF01CEC0FF0B2EC0DF007C0E5F208C075
:10355000E6F209C0E7F20AC0E8F207C006F008C0C8
:1035600007F009C008F00AC009F01200050EF36E5A
:10357000F46A1200E3C2F3FFE4C2F4FF1200D9CFF1
:10358000E6FFE1CFD9FF020EE126E5C207F0E6C271
:1035900008F0E7C209F0E8C20AF060EC0FF008C0DA
:1035A000DEFF09C0DDFFDECF14F0DDCF15F014C063
:1035B000F3FF15C0F4FF020EE15C02E2E16AE5529E
:1035C000E16EE552E7CFD9FF1200D9CFE6FFE1CF98
:1035D000D9FF020EE1260C6A0D6A200E0E6E410E16
:1035E0000F6EE5C207F0E6C208F0E7C209F0E8C2D4
:1035F0000AF0AFEC0EF060EC0FF008C0DEFF09C07F
:10360000DDFFDECF14F0DDCF15F00A0E0D6E0E6A71
:1036100014C008F015C009F0ACEC20F004C014F0A0
:1036200005C015F004C0DEFF05C0DDFFDECF14F0DD
:10363000DDCF15F014C0F3FF15C0F4FF020EE15CFE
:1036400002E2E16AE552E16EE552E7CFD9FF1200EE
:103650008350010B0AE08350020B07E08250020BFB
:1036600004E08350080B01E0440C8350020B07E098
:103670008250020B04E08350080B01E0430C83509E
:10368000010B07E08350020B04E08250020B01E0C3
:10369000300C8350010B07E08350020B04E0835091
:1036A000080B01E0230C8350010B07E08250020B52
:1036B00004E08350080B01E0420C8250020B04E04E
:1036C0008350080B01E0410C8350010B04E0825051
:1036D000020B01E0350C8350010B04E08350080B12
:1036E00001E0360C8350020B04E08250020B01E033
:1036F000380C8350020B04E08350080B01E0390CB6
:103700008350010B04E08350020B01E02A0C82B2CB
:10371000320C83B6330C83B0340C83B2370C310CCB
:1037200095809582948295860201FA6BFB6B938259
:0E373000F19EF09CD08EF090F18AF08612008F
:02373E00D9CFE1
:10374000E6FFE1CFD9FF0F0E831695169292929461
:10375000929089928994899053EC1CF0300EE66E19
:1037600016EC1FF0E552050EE66E95EC20F0E552E2
:10377000300EE66E16EC1FF0E552010EE66E95EC8B
:1037800020F0E552320EE66E16EC1FF0E55262ECC8
:1037900020F00009FCE162EC20F00009FCE1FE0EE3
:1037A000DBCFE6FF16EC1FF0E55262EC20F00009DB
:1037B000FCE1080EE66E16EC1FF0E55262EC20F01C
:1037C0000009FCE10F0EE66E16EC1FF0E55262EC0C
:1037D00020F00009FCE1010EE66E16EC1FF0E55248
:1037E00062EC20F00009FCE1040EE66E16EC1FF01E
:1037F000E55262EC20F00009FCE1800EE66E7BEC05
:0C3800001EF0E552E552E7CFD9FF1200A0
:04380C00000EE66E56
:10381000E66A2BEC20F0E552E55262EC20F000095C
:10382000FCE1010EE66E16EC1FF0E55262EC20F0B2
:103830000009FCE1580EE66E330EE66EC9EC1EF090
:10384000E552E552800EE66E95EC20F0E55212004E
:10385000956A280EE66E9FEC1BF0E55262EC20F0B4
:103860000009FCE1010EE66E16EC1FF0E55262EC79
:1038700020F00009FCE11200000000000000000040
:103880000000000000000000000000000000000038
:103890000000000000000000000000000000000028
:1038A000000000D01200190EE66ED4EC20F0E552B4
:0E38B00012001E0EE66ED4EC20F0E55212005F
:0238BE00D9CF60
:1038C000E6FFDACFE6FFE1CFD9FFE2CFDAFFE6523B
:1038D000E652E652E652D950F90F146EFF0EDA2086
:1038E000156E020E14C0DBFF030E15C0DBFF020EC7
:1038F000DBCFE6FF030EDBCFE6FFF90EDBCFE6FF03
:10390000FA0EDBCFE6FFFB0EDBCFE6FFD950FC0F54
:10391000E66EFF0EDA20E66EB5EC07F0146E070EC9
:10392000E15C02E2E16AE552E16E1450F3CFDEFFA2
:10393000F4CFDDFFFC0EDBCFE9FFFD0EDBCFEAFFAE
:10394000EF6ADECF14F0DDCF15F014C0F3FF15C021
:10395000F4FF040EE15C02E2E16AE552E16EE55239
:0A396000E5CFDAFFE7CFD9FF120030
:06396A002A0EF66E000EAD
:10397000F76E000EF86E02010900F550CA6F0900DB
:10398000F550CB6F03E1CA6701D03DD00900F55077
:10399000C56F0900F550C66F0900F550C76F0900E3
:1039A0000900F550E96E0900F550EA6E09000900BA
:1039B0000900F550C86F0900F550C96F09000900EA
:1039C000F6CFCCF2F7CFCDF2F8CFCEF2C5C2F6FFEC
:1039D000C6C2F7FFC7C2F8FF0201C85302E1C953CC
:1039E00007E00900F550EE6EC807F8E2C907F9D7FD
:1039F000CCC2F6FFCDC2F7FFCEC2F8FF0201CA0764
:083A0000000ECB5BBFD71200E2
:083A0800D9CFE6FFDACFE6FF9B
:103A1000E1CFD9FFE2CFDAFFFB0EDBCF14F0FC0ED3
:103A2000DBCF15F00001800E15141AE1FB0EDBCF81
:103A3000E9FFFC0EDBCFEAFFEECFF3FFEDCFF4FFA3
:103A4000EE2A000EEF22F3CFE9FFF4CFEAFFFD0EDE
:103A5000DBCFEFFFEF50156AF36E15C0F4FF10D007
:103A6000FB0EDB50FE0806E1FD0EDBCFE6FF02ECAD
:103A700021F005D0FD0EDBCFE6FF39EC21F0E55259
:0C3A8000E552E5CFDAFFE7CFD9FF1200D6
:043A8C000201E92B1F
:103A9000000EEA231200E9C2F3FFEAC2F4FF1200AB
:103AA0000201E96BEA6B12003C0EF36EF46A12003D
:103AB000D9CFE6FFE1CFD9FFFD0EDBCFEBF2FE0E53
:103AC000DBCFECF2E552E7CFD9FF1200EBC2F3FFF8
:103AD000ECC2F4FF12000201EB6BEC6B120002016E
:103AE000ED6BEE6B1200EDC2F3FFEEC2F4FF1200BD
:103AF000D9CFE6FFE1CFD9FFFD0EDBCFEDF2FE0E11
:0C3B0000DBCFEEF2E552E7CFD9FF120058
:043B0C0006500B0252
:103B1000F3CF02F0F4CF03F00C02F3500326000EB3
:103B2000F420046E06500D02F3500426000EF4201B
:103B3000056E06500E02F350052607500B02F35097
:103B40000326F4500422000E052207500C02F35005
:103B50000426F450052207500D02F35005260850A4
:103B60000B02F3500426F450052208500C02F350C7
:0C3B7000052609500B02F3500526120038
:043B7C00FE0EE3CF87
:103B8000E9FFFF0EE3CFEAFFF36AF46AEE5203E0C7
:103B9000F34AF42AFBD71200FF0EE3CFF8FFE552F9
:103BA000FF0EE3CFF7FFE552FF0EE3CFF6FFE5523E
:103BB000E66AE66AE66A0900F55209E0FD0EE32AC4
:103BC00005E1FE0EE32A02E1FF0EE32AF4D7FD0E23
:103BD000E3CF07F0FE0EE3CF08F0FF0EE3CF09F0CE
:023BE0001200D1
:0E3BE200D9CFE6FFDACFE6FFE1CFD9FFE2CF81
:103BF000DAFFE652E652FC0EDBCF14F0FD0EDBCF0F
:103C000015F0060ED89014361536E804FBE114C002
:103C1000DEFF15C0DDFF010EDB50BE6EDF50E84059
:103C2000E8403F0B300B146ECF0EBD141410BD6E68
:103C3000E552E552E552E5CFDAFFE7CFD9FF1200B2
:103C40009690969296948D808D828D84E66AD4ECBF
:103C500020F0E5528D90E66AD4EC20F0E5528D928A
:103C6000E66AD4EC20F0E5528D94956A280EE66E53
:103C70009FEC1BF0E55262EC20F00009FCE1010E24
:103C8000E66E16EC1FF0E55262EC20F00009FCE154
:0C3C9000120012001200120012001200BC
:043C9C00270EE66E9B
:103CA000E00EE66E85EC1FF0E552E552050EE66E7D
:103CB00010EC21F0E55237EC21F02DEC21F0000959
:103CC000FCE11BEC21F0F3CFF6F2F4CFF7F232EC8B
:103CD00021F0F6C2F3FFF7C2F4FF12000201F46B09
:103CE000F56B1200FBDF500EF36EF46A1200020156
:063CF000F46BF56B1200FD
:0A3CF600D9CFE6FFE1CFD9FF0F0E92
:103D000095168316FE0EDB508009F00B8312899204
:103D100089943CEC1CF089803CEC1CF089900F0EDF
:103D20008316FE0EDB38F00BF00B83123CEC1CF01C
:103D300089803CEC1CF08990F00E9512E552E7CF9B
:043D4000D9FF120095
:0C3D4400D9CFE6FFE1CFD9FF0F0E951696
:103D50008316FE0EDB504009F00B83128992899482
:103D60003CEC1CF089803CEC1CF089900F0E831613
:103D7000FE0EDB38F00BF00B83123CEC1CF089805C
:103D80003CEC1CF08990F00E9512E552E7CFD9FF7C
:023D900012001F
:0E3D9200D9CFE6FFE1CFD9FFFD0EDBCFF6FF64
:103DA000FE0EDBCFF7FF0800F55016E062EC20F0C6
:103DB0000009FCE1FD0EDBCFF6FFFE0EDBCFF7FFC7
:103DC0000800F550E66EF0EC1EF0E552FD0EDB2A21
:103DD000FE0EE3E3DB2AE1D7E552E7CFD9FF12007D
:103DE000D9CFE6FFE1CFD9FF0F0E95168316FE0E51
:103DF000DB50F00B8312898489923CEC1CF08980A3
:103E00003CEC1CF089900F0E8316FE0EDB38F00B95
:103E1000F00B83123CEC1CF089803CEC1CF0899088
:0C3E2000F00E9512E552E7CFD9FF12001A
:043E2C00D9CFE6FF05
:103E3000E1CFD9FF0F0E95168316FE0EDB50F00B67
:103E40008312899289943CEC1CF089803CEC1CF034
:103E500089900F0E8316FE0EDB38F00BF00B8312E9
:103E60003CEC1CF089803CEC1CF08990F00E951223
:083E7000E552E7CFD9FF120073
:083E7800D9CFE6FFE1CFD9FF2D
:103E8000FD0EDBCFE9FFFE0EDBCFEAFFEF5015E0C2
:103E900062EC20F00009FCE1FD0EDBCFE9FFFE0E35
:103EA000DBCFEAFFEF50E66EF0EC1EF0E552FD0EC0
:103EB000DB2AFE0EE5E3DB2AE3D7E552E7CFD9FFA5
:023EC0001200EE
:0E3EC200056A046A036A026A200EE76ED89051
:103ED0000636073608360936023603360436053606
:103EE0000B50025C0C5003580D5004580E500558EE
:103EF00009E30B50025E0C50035A0D50045A0E5049
:0A3F0000055A062AE72EE4D7120046
:063F0A00D9CFE6FFDACF7B
:103F1000E6FFE1CFD9FFE2CFDAFFC26AFD0EDB5048
:103F2000C16EFC0EDB50380B146EFD0EDB50040D21
:103F3000F350C00B1410C26EFC0EDBAE03D09E9C7F
:103F40009D8CF28CC280E552E5CFDAFFE7CFD9FF36
:023F500012005D
:0E3F5200D9CFE6FFE1CFD9FFE65289828984FC
:103F60003CEC1CF089803CEC1CF0F00E8314DF6EFE
:103F700089903CEC1CF089803CEC1CF083380F0BE2
:103F80000F0BDF12899089948992DF50E552E55238
:063F9000E7CFD9FF12008B
:0A3F9600D9CFE6FFE1CFD9FFE652D4
:103FA000898289943CEC1CF089803CEC1CF0F00E7A
:103FB0008314DF6E89903CEC1CF089803CEC1CF093
:103FC00083380F0B0F0BDF12899089927F0EDF145D
:0A3FD000E552E552E7CFD9FF1200D9
:063FDA00D9CFE6FFDACFAB
:103FE000E6FFE1CFD9FFE2CFDAFFE652E652CE504C
:103FF000DF6E010ECFCFDBFFDECF14F0DDCF15F08B
:1040000014C0F3FF15C0F4FFE552E552E552E5CFC9
:08401000DAFFE7CFD9FF12002F
:08401800D9CFE6FFDACFE6FF85
:10402000E1CFD9FFE2CFDAFFE652E652D650DF6E9B
:10403000010ED7CFDBFFDECF14F0DDCF15F014C0BB
:10404000F3FF15C0F4FFE552E552E552E5CFDAFF84
:06405000E7CFD9FF1200CA
:0A405600D9CFE6FFDACFE6FFE1CF95
:10406000D9FFE2CFDAFFE652E652FC0EDBCFDEFFED
:10407000DBCFDDFF010EDB50D76EDF50D66EE55291
:0E408000E552E552E5CFDAFFE7CFD9FF120097
:02408E00D9CF88
:10409000E6FFDACFE6FFE1CFD9FFE2CFDAFFFD0E90
:1040A000DB50FB0BCA6ECC6A9E92FD0EDBAE02D0DB
:1040B0009D8201D09D92CA84E552E5CFDAFFE7CF19
:0440C000D9FF120012
:0C40C400898289943CEC1CF089803CEC63
:1040D0001CF083AE09D089903CEC1CF089803CEC4C
:1040E0001CF089908992010C89903CEC1CF089802D
:0A40F0003CEC1CF089908992000C52
:0640FA00D9CFE6FFDACF8A
:10410000E6FFE1CFD9FFE2CFDAFF0C0EBD129494A7
:10411000CA94FD0EDB50CB6ECA84E552E5CFDAFFC0
:0A412000E7CFD9FF120094941200BB
:06412A00FF0EE350276EBA
:10413000EF0E01D0F30EE76EE72E9CEF20F00C0E91
:10414000266EE76AE72EA2EF20F0262EA1EF20F0E0
:08415000272E9AEF20F0120067
:08415800056A046A100EE76E0F
:10416000D89008360936043605360D50045C0E50DA
:10417000055805E30D50045E0E50055A082AE72E37
:04418000F0D7120062
:0C418400F36AF46AFF0EE124E96EFF0EFE
:10419000E220EA6EED6607D02F0EEF6404D03A0EEF
:0841A000EF6001D0F32A1200C8
:0841A800FF0EE350276E480EE4
:1041B00001D04C0EE76EE72EFED7E76AE72EFED75A
:0841C000272EF7D700001200C2
:0841C800000EF36E00EE00F0A2
:1041D000060E01D81200EA6002D0EE6AFCD7F35056
:0841E000E9601200EE6AFCD751
:0841E80010EE80F020EE80F0E3
:1041F000F86A019CB5EC1CF03AEC21F017EC01F0E8
:04420000FBD71200D6
:0C420400FF0EE350ACBA04D0AF6AAB8EE2
:10421000AC8A949CACA2FED7AD6EF36EF46A120029
:10422000FF0EE350E84E1200000000D000D000D096
:06423000E82EFAD712008F
:0A423600C450176E166AC35016102C
:08424000F36E17C0F4FF120039
:084248003031323334353637D2
:094250003839616263646566009F
:06425A00C250040B01E05C
:04426000010E120039
:06426400C2909D9C1200B7
:04426A00BD6A120017
:02426E00C28408
:0242700012003A
:02427200120038
:02427400120036
:0A427600000000000000000000003E
:10428000B00000000000000000000000000000007E
:05429000000000000029
:02429500000027
:094297000000000000000000001E
:0142A000001D
:0242A10000001B
:0642A30000000000000015
:0542A900000000000010
:020000040030CA
:0100010021DD
:010003000EEE
:010006008178
:00000001FF
